{
  "contractName": "TicketLogger",
  "abi": [
    {
      "inputs": [],
      "stateMutability": "nonpayable",
      "type": "constructor"
    },
    {
      "anonymous": false,
      "inputs": [
        {
          "indexed": false,
          "internalType": "string",
          "name": "ticketID",
          "type": "string"
        },
        {
          "indexed": false,
          "internalType": "string",
          "name": "eventID",
          "type": "string"
        },
        {
          "indexed": false,
          "internalType": "string",
          "name": "userID",
          "type": "string"
        },
        {
          "indexed": false,
          "internalType": "string",
          "name": "prevUserID",
          "type": "string"
        },
        {
          "indexed": false,
          "internalType": "string",
          "name": "prevTxHash",
          "type": "string"
        }
      ],
      "name": "TicketOwnership",
      "type": "event"
    },
    {
      "anonymous": false,
      "inputs": [
        {
          "indexed": false,
          "internalType": "address",
          "name": "contractAddress",
          "type": "address"
        }
      ],
      "name": "newTicketLogger",
      "type": "event"
    },
    {
      "inputs": [
        {
          "internalType": "string",
          "name": "ticketID",
          "type": "string"
        },
        {
          "internalType": "string",
          "name": "eventID",
          "type": "string"
        },
        {
          "internalType": "string",
          "name": "userID",
          "type": "string"
        },
        {
          "internalType": "string",
          "name": "prevUserID",
          "type": "string"
        },
        {
          "internalType": "string",
          "name": "prevTxHash",
          "type": "string"
        }
      ],
      "name": "logTicketOwnership",
      "outputs": [],
      "stateMutability": "nonpayable",
      "type": "function"
    }
  ],
  "bytecode": "0x60a060405234801561001057600080fd5b503373ffffffffffffffffffffffffffffffffffffffff1660808173ffffffffffffffffffffffffffffffffffffffff16815250507f7c787ecec34913631f84b9cc577429b8135692be11f768b2121c5af454d7b7213060405161007491906100c2565b60405180910390a16100dd565b600073ffffffffffffffffffffffffffffffffffffffff82169050919050565b60006100ac82610081565b9050919050565b6100bc816100a1565b82525050565b60006020820190506100d760008301846100b3565b92915050565b6080516104616100f76000396000604e01526104616000f3fe608060405234801561001057600080fd5b506004361061002b5760003560e01c8063a526b70614610030575b600080fd5b61004a6004803603810190610045919061019e565b61004c565b005b7f000000000000000000000000000000000000000000000000000000000000000073ffffffffffffffffffffffffffffffffffffffff163373ffffffffffffffffffffffffffffffffffffffff16146100da576040517f08c379a00000000000000000000000000000000000000000000000000000000081526004016100d19061033e565b60405180910390fd5b7fcfd7adb8a0101bcaf6fe8eb9b23450583f0910af7424bb49943ee3b05341c9d48a8a8a8a8a8a8a8a8a8a60405161011b9a999897969594939291906103ab565b60405180910390a150505050505050505050565b600080fd5b600080fd5b600080fd5b600080fd5b600080fd5b60008083601f84011261015e5761015d610139565b5b8235905067ffffffffffffffff81111561017b5761017a61013e565b5b60208301915083600182028301111561019757610196610143565b5b9250929050565b60008060008060008060008060008060a08b8d0312156101c1576101c061012f565b5b60008b013567ffffffffffffffff8111156101df576101de610134565b5b6101eb8d828e01610148565b9a509a505060208b013567ffffffffffffffff81111561020e5761020d610134565b5b61021a8d828e01610148565b985098505060408b013567ffffffffffffffff81111561023d5761023c610134565b5b6102498d828e01610148565b965096505060608b013567ffffffffffffffff81111561026c5761026b610134565b5b6102788d828e01610148565b945094505060808b013567ffffffffffffffff81111561029b5761029a610134565b5b6102a78d828e01610148565b92509250509295989b9194979a5092959850565b600082825260208201905092915050565b7f496e76616c696420616464726573732c206f6e6c79206f776e65722063616e2060008201527f696e746572616374207769746820636f6e74726163742e000000000000000000602082015250565b60006103286037836102bb565b9150610333826102cc565b604082019050919050565b600060208201905081810360008301526103578161031b565b9050919050565b82818337600083830152505050565b6000601f19601f8301169050919050565b600061038a83856102bb565b935061039783858461035e565b6103a08361036d565b840190509392505050565b600060a08201905081810360008301526103c6818c8e61037e565b905081810360208301526103db818a8c61037e565b905081810360408301526103f081888a61037e565b9050818103606083015261040581868861037e565b9050818103608083015261041a81848661037e565b90509b9a505050505050505050505056fea2646970667358221220e901d5d093e35e4dd5b2a3c8e43bb92f75331d7e3f2749c6008ac01d41337e6264736f6c634300080d0033",
  "immutableReferences": {
    "3": [
      {
        "length": 32,
        "start": 78
      }
    ]
  },
  "source": "// SPDX-License-Identifier: UNLICENSED \npragma solidity ^0.8.0;\n\ncontract TicketLogger{\n\n    // Address of contract owner.\n    address private immutable owner; \n\n    /**\n     * Event used to indicate ticket ownership.\n     */\n    event TicketOwnership(\n        string ticketID,\n        string eventID,\n        string userID,\n        string prevUserID,\n        string prevTxHash\n    );\n\n    event newTicketLogger(\n        address contractAddress\n    );\n\n    constructor(){\n        // Initialise owner address.\n        owner = msg.sender;\n        emit newTicketLogger(address(this));\n    }\n\n    /**\n     * Function modifier to give access control, \n     * only the address that created the contract\n     * can access its functions.\n     */\n    modifier accessControl(){\n        require(\n            msg.sender == owner, \n            \"Invalid address, only owner can interact with contract.\"\n        );\n        _;\n    }\n\n    /**\n     * Function used to emit ownership log on transaction.\n     */\n    function logTicketOwnership(\n            string calldata ticketID, \n            string calldata eventID, \n            string calldata userID,\n            string calldata prevUserID,\n            string calldata prevTxHash\n        ) public accessControl{\n\n        // Emit event.\n        emit TicketOwnership(ticketID, eventID, userID, prevUserID, prevTxHash);\n    }\n}",
  "sourcePath": "/Users/alvinkaranja/Documents/Uni/3rd Year Project/Gatsby/Gatsby-Network/Gatsby-Blockchain/contracts/TicketLogger.sol",
  "compiler": {
    "name": "solc",
    "version": "0.8.13+commit.abaa5c0e.Emscripten.clang"
  },
  "schemaVersion": "3.4.16",
  "updatedAt": "2024-04-29T17:27:37.993Z",
  "networkType": "ethereum",
  "devdoc": {
    "kind": "dev",
    "methods": {},
    "version": 1
  },
  "userdoc": {
    "events": {
      "TicketOwnership(string,string,string,string,string)": {
        "notice": "Event used to indicate ticket ownership."
      }
    },
    "kind": "user",
    "methods": {
      "logTicketOwnership(string,string,string,string,string)": {
        "notice": "Function used to emit ownership log on transaction."
      }
    },
    "version": 1
  }
}